{
  "contractName": "PriceHashStorage",
  "abi": [
    {
      "inputs": [],
      "stateMutability": "nonpayable",
      "type": "constructor"
    },
    {
      "inputs": [
        {
          "internalType": "uint256",
          "name": "",
          "type": "uint256"
        }
      ],
      "name": "PriceHashes",
      "outputs": [
        {
          "internalType": "address",
          "name": "sender",
          "type": "address"
        },
        {
          "internalType": "string",
          "name": "hash",
          "type": "string"
        },
        {
          "internalType": "uint256",
          "name": "timestamptz",
          "type": "uint256"
        }
      ],
      "stateMutability": "view",
      "type": "function",
      "constant": true
    },
    {
      "inputs": [],
      "name": "fee",
      "outputs": [
        {
          "internalType": "uint256",
          "name": "",
          "type": "uint256"
        }
      ],
      "stateMutability": "view",
      "type": "function",
      "constant": true
    },
    {
      "inputs": [],
      "name": "totalPriceHashes",
      "outputs": [
        {
          "internalType": "uint256",
          "name": "",
          "type": "uint256"
        }
      ],
      "stateMutability": "view",
      "type": "function",
      "constant": true
    },
    {
      "inputs": [
        {
          "internalType": "string",
          "name": "_hash",
          "type": "string"
        },
        {
          "internalType": "uint256",
          "name": "_timestamptz",
          "type": "uint256"
        }
      ],
      "name": "storePriceHash",
      "outputs": [],
      "stateMutability": "payable",
      "type": "function",
      "payable": true
    },
    {
      "inputs": [],
      "name": "getContractBalance",
      "outputs": [
        {
          "internalType": "uint256",
          "name": "",
          "type": "uint256"
        }
      ],
      "stateMutability": "view",
      "type": "function",
      "constant": true
    },
    {
      "inputs": [
        {
          "internalType": "uint256",
          "name": "_fee",
          "type": "uint256"
        }
      ],
      "name": "setFee",
      "outputs": [],
      "stateMutability": "nonpayable",
      "type": "function"
    },
    {
      "inputs": [
        {
          "internalType": "uint256",
          "name": "_amount",
          "type": "uint256"
        }
      ],
      "name": "withdraw",
      "outputs": [],
      "stateMutability": "payable",
      "type": "function",
      "payable": true
    }
  ],
  "bytecode": "0x6080604052600060015534801561001557600080fd5b50336000806101000a81548173ffffffffffffffffffffffffffffffffffffffff021916908373ffffffffffffffffffffffffffffffffffffffff1602179055506000600281905550610a498061006d6000396000f3fe6080604052600436106100705760003560e01c806369fe0e2d1161004e57806369fe0e2d146100ec5780636f9fb98a14610115578063828712ab14610140578063ddca3f431461016b57610070565b80632e1a7d4d146100755780634e5628381461009157806352ec6368146100d0575b600080fd5b61008f600480360381019061008a91906105d0565b610196565b005b34801561009d57600080fd5b506100b860048036038101906100b391906105d0565b610258565b6040516100c7939291906106e6565b60405180910390f35b6100ea60048036038101906100e59190610859565b61033a565b005b3480156100f857600080fd5b50610113600480360381019061010e91906105d0565b61046d565b005b34801561012157600080fd5b5061012a6104cf565b60405161013791906108b5565b60405180910390f35b34801561014c57600080fd5b506101556104d7565b60405161016291906108b5565b60405180910390f35b34801561017757600080fd5b506101806104dd565b60405161018d91906108b5565b60405180910390f35b60008054906101000a900473ffffffffffffffffffffffffffffffffffffffff1673ffffffffffffffffffffffffffffffffffffffff163373ffffffffffffffffffffffffffffffffffffffff16146101ee57600080fd5b60008054906101000a900473ffffffffffffffffffffffffffffffffffffffff1673ffffffffffffffffffffffffffffffffffffffff166108fc829081150290604051600060405180830381858888f19350505050158015610254573d6000803e3d6000fd5b5050565b6003818154811061026857600080fd5b90600052602060002090600302016000915090508060000160009054906101000a900473ffffffffffffffffffffffffffffffffffffffff16908060010180546102b1906108ff565b80601f01602080910402602001604051908101604052809291908181526020018280546102dd906108ff565b801561032a5780601f106102ff5761010080835404028352916020019161032a565b820191906000526020600020905b81548152906001019060200180831161030d57829003601f168201915b5050505050908060020154905083565b60025434101561037f576040517f08c379a00000000000000000000000000000000000000000000000000000000081526004016103769061097c565b60405180910390fd5b600060405180606001604052803373ffffffffffffffffffffffffffffffffffffffff168152602001848152602001838152509050600381908060018154018082558091505060019003906000526020600020906003020160009091909190915060008201518160000160006101000a81548173ffffffffffffffffffffffffffffffffffffffff021916908373ffffffffffffffffffffffffffffffffffffffff16021790555060208201518160010190805190602001906104439291906104e3565b5060408201518160020155505060016000815480929190610463906109cb565b9190505550505050565b60008054906101000a900473ffffffffffffffffffffffffffffffffffffffff1673ffffffffffffffffffffffffffffffffffffffff163373ffffffffffffffffffffffffffffffffffffffff16146104c557600080fd5b8060028190555050565b600047905090565b60015481565b60025481565b8280546104ef906108ff565b90600052602060002090601f0160209004810192826105115760008555610558565b82601f1061052a57805160ff1916838001178555610558565b82800160010185558215610558579182015b8281111561055757825182559160200191906001019061053c565b5b5090506105659190610569565b5090565b5b8082111561058257600081600090555060010161056a565b5090565b6000604051905090565b600080fd5b600080fd5b6000819050919050565b6105ad8161059a565b81146105b857600080fd5b50565b6000813590506105ca816105a4565b92915050565b6000602082840312156105e6576105e5610590565b5b60006105f4848285016105bb565b91505092915050565b600073ffffffffffffffffffffffffffffffffffffffff82169050919050565b6000610628826105fd565b9050919050565b6106388161061d565b82525050565b600081519050919050565b600082825260208201905092915050565b60005b8381101561067857808201518184015260208101905061065d565b83811115610687576000848401525b50505050565b6000601f19601f8301169050919050565b60006106a98261063e565b6106b38185610649565b93506106c381856020860161065a565b6106cc8161068d565b840191505092915050565b6106e08161059a565b82525050565b60006060820190506106fb600083018661062f565b818103602083015261070d818561069e565b905061071c60408301846106d7565b949350505050565b600080fd5b600080fd5b7f4e487b7100000000000000000000000000000000000000000000000000000000600052604160045260246000fd5b6107668261068d565b810181811067ffffffffffffffff821117156107855761078461072e565b5b80604052505050565b6000610798610586565b90506107a4828261075d565b919050565b600067ffffffffffffffff8211156107c4576107c361072e565b5b6107cd8261068d565b9050602081019050919050565b82818337600083830152505050565b60006107fc6107f7846107a9565b61078e565b90508281526020810184848401111561081857610817610729565b5b6108238482856107da565b509392505050565b600082601f8301126108405761083f610724565b5b81356108508482602086016107e9565b91505092915050565b600080604083850312156108705761086f610590565b5b600083013567ffffffffffffffff81111561088e5761088d610595565b5b61089a8582860161082b565b92505060206108ab858286016105bb565b9150509250929050565b60006020820190506108ca60008301846106d7565b92915050565b7f4e487b7100000000000000000000000000000000000000000000000000000000600052602260045260246000fd5b6000600282049050600182168061091757607f821691505b60208210810361092a576109296108d0565b5b50919050565b7f496e73756666696369656e742042616c616e6365000000000000000000000000600082015250565b6000610966601483610649565b915061097182610930565b602082019050919050565b6000602082019050818103600083015261099581610959565b9050919050565b7f4e487b7100000000000000000000000000000000000000000000000000000000600052601160045260246000fd5b60006109d68261059a565b91507fffffffffffffffffffffffffffffffffffffffffffffffffffffffffffffffff8203610a0857610a0761099c565b5b60018201905091905056fea26469706673582212206d95379ae4cbaf7720c1c977b48ac9decacf6b00f31ee2dd09aaf2c71295625c64736f6c634300080d0033",
  "immutableReferences": {},
  "source": "//SPDX-License-Identifier: UNLICENSED\npragma solidity ^0.8.13;\n\ncontract PriceHashStorage {\n\n    // state variables\n    address private owner;\n    uint public totalPriceHashes = 0;\n    uint public fee;\n    \n    struct PriceHash {\n        address sender;\n        string hash;\n        uint timestamptz;\n    }\n\n    PriceHash[] public PriceHashes; //declaring it public will default in a GET function when deploying, so no need to write it\n\n    modifier onlyOwner {\n        require(msg.sender == owner);\n        _; //run the function\n    }\n\n    constructor() {\n        owner = msg.sender;\n        fee = 0; //we could include a fee later, but doesn't make sense if we are the only ones storing\n    }\n\n    function storePriceHash(string memory _hash, uint _timestamptz) public payable {\n        require(msg.value >= fee, \"Insufficient Balance\"); //always true since 0 fee for now\n        PriceHash memory newPriceHash = PriceHash(msg.sender,_hash,_timestamptz);\n        PriceHashes.push(newPriceHash);\n        totalPriceHashes ++;\n    }\n\n    function getContractBalance() public view returns(uint){\n        return address(this).balance;\n    }\n\n    function setFee(uint _fee) public onlyOwner(){\n        fee = _fee; //to change view after contract deployment\n    }\n   \n    function withdraw(uint _amount) public payable onlyOwner {\n        payable(owner).transfer(_amount);\n    }\n\n}",
  "sourcePath": "/Users/chris/Documents/GitLab/price-timestamping/smartcontract_rinkeby/contracts/PriceHashStorage.sol",
  "compiler": {
    "name": "solc",
    "version": "0.8.13+commit.abaa5c0e.Emscripten.clang"
  },
  "schemaVersion": "3.4.11",
  "updatedAt": "2022-12-22T13:30:14.200Z",
  "networkType": "ethereum",
  "devdoc": {
    "kind": "dev",
    "methods": {},
    "version": 1
  },
  "userdoc": {
    "kind": "user",
    "methods": {},
    "version": 1
  }
}